{
  "address": "0xCf7Ed3AccA5a467e9e704C703E8D87F634fB0Fc9",
  "abi": [
    {
      "inputs": [
        {
          "internalType": "uint256",
          "name": "subscriptionId",
          "type": "uint256"
        },
        {
          "internalType": "address",
          "name": "vrfCoordinator",
          "type": "address"
        },
        {
          "internalType": "bytes32",
          "name": "keyHash",
          "type": "bytes32"
        }
      ],
      "stateMutability": "nonpayable",
      "type": "constructor"
    },
    {
      "inputs": [
        {
          "internalType": "address",
          "name": "have",
          "type": "address"
        },
        {
          "internalType": "address",
          "name": "want",
          "type": "address"
        }
      ],
      "name": "OnlyCoordinatorCanFulfill",
      "type": "error"
    },
    {
      "inputs": [
        {
          "internalType": "address",
          "name": "have",
          "type": "address"
        },
        {
          "internalType": "address",
          "name": "owner",
          "type": "address"
        },
        {
          "internalType": "address",
          "name": "coordinator",
          "type": "address"
        }
      ],
      "name": "OnlyOwnerOrCoordinator",
      "type": "error"
    },
    {
      "inputs": [],
      "name": "ZeroAddress",
      "type": "error"
    },
    {
      "anonymous": false,
      "inputs": [
        {
          "indexed": false,
          "internalType": "address",
          "name": "vrfCoordinator",
          "type": "address"
        }
      ],
      "name": "CoordinatorSet",
      "type": "event"
    },
    {
      "anonymous": false,
      "inputs": [
        {
          "indexed": true,
          "internalType": "address",
          "name": "from",
          "type": "address"
        },
        {
          "indexed": true,
          "internalType": "address",
          "name": "to",
          "type": "address"
        }
      ],
      "name": "OwnershipTransferRequested",
      "type": "event"
    },
    {
      "anonymous": false,
      "inputs": [
        {
          "indexed": true,
          "internalType": "address",
          "name": "from",
          "type": "address"
        },
        {
          "indexed": true,
          "internalType": "address",
          "name": "to",
          "type": "address"
        }
      ],
      "name": "OwnershipTransferred",
      "type": "event"
    },
    {
      "anonymous": false,
      "inputs": [
        {
          "indexed": false,
          "internalType": "uint256[]",
          "name": "randomWords",
          "type": "uint256[]"
        }
      ],
      "name": "ReturnedRandomness",
      "type": "event"
    },
    {
      "anonymous": false,
      "inputs": [
        {
          "indexed": false,
          "internalType": "uint256",
          "name": "userCandidateId",
          "type": "uint256"
        },
        {
          "indexed": false,
          "internalType": "uint256",
          "name": "winnerId",
          "type": "uint256"
        },
        {
          "indexed": false,
          "internalType": "bool",
          "name": "hasWon",
          "type": "bool"
        }
      ],
      "name": "Winner",
      "type": "event"
    },
    {
      "inputs": [],
      "name": "acceptOwnership",
      "outputs": [],
      "stateMutability": "nonpayable",
      "type": "function"
    },
    {
      "inputs": [
        {
          "internalType": "uint256",
          "name": "",
          "type": "uint256"
        }
      ],
      "name": "candidates",
      "outputs": [
        {
          "internalType": "string",
          "name": "",
          "type": "string"
        }
      ],
      "stateMutability": "view",
      "type": "function"
    },
    {
      "inputs": [],
      "name": "hasUserWon",
      "outputs": [],
      "stateMutability": "nonpayable",
      "type": "function"
    },
    {
      "inputs": [],
      "name": "hasWinner",
      "outputs": [
        {
          "internalType": "bool",
          "name": "",
          "type": "bool"
        }
      ],
      "stateMutability": "view",
      "type": "function"
    },
    {
      "inputs": [],
      "name": "owner",
      "outputs": [
        {
          "internalType": "address",
          "name": "",
          "type": "address"
        }
      ],
      "stateMutability": "view",
      "type": "function"
    },
    {
      "inputs": [],
      "name": "randomWinnerId",
      "outputs": [
        {
          "internalType": "uint256",
          "name": "",
          "type": "uint256"
        }
      ],
      "stateMutability": "view",
      "type": "function"
    },
    {
      "inputs": [
        {
          "internalType": "uint256",
          "name": "requestId",
          "type": "uint256"
        },
        {
          "internalType": "uint256[]",
          "name": "randomWords",
          "type": "uint256[]"
        }
      ],
      "name": "rawFulfillRandomWords",
      "outputs": [],
      "stateMutability": "nonpayable",
      "type": "function"
    },
    {
      "inputs": [],
      "name": "requestRandomWords",
      "outputs": [],
      "stateMutability": "nonpayable",
      "type": "function"
    },
    {
      "inputs": [],
      "name": "s_randomRange",
      "outputs": [
        {
          "internalType": "uint256",
          "name": "",
          "type": "uint256"
        }
      ],
      "stateMutability": "view",
      "type": "function"
    },
    {
      "inputs": [
        {
          "internalType": "uint256",
          "name": "",
          "type": "uint256"
        }
      ],
      "name": "s_randomWords",
      "outputs": [
        {
          "internalType": "uint256",
          "name": "",
          "type": "uint256"
        }
      ],
      "stateMutability": "view",
      "type": "function"
    },
    {
      "inputs": [],
      "name": "s_requestId",
      "outputs": [
        {
          "internalType": "uint256",
          "name": "",
          "type": "uint256"
        }
      ],
      "stateMutability": "view",
      "type": "function"
    },
    {
      "inputs": [],
      "name": "s_vrfCoordinator",
      "outputs": [
        {
          "internalType": "contract IVRFCoordinatorV2Plus",
          "name": "",
          "type": "address"
        }
      ],
      "stateMutability": "view",
      "type": "function"
    },
    {
      "inputs": [
        {
          "internalType": "address",
          "name": "_vrfCoordinator",
          "type": "address"
        }
      ],
      "name": "setCoordinator",
      "outputs": [],
      "stateMutability": "nonpayable",
      "type": "function"
    },
    {
      "inputs": [
        {
          "internalType": "address",
          "name": "to",
          "type": "address"
        }
      ],
      "name": "transferOwnership",
      "outputs": [],
      "stateMutability": "nonpayable",
      "type": "function"
    },
    {
      "inputs": [
        {
          "internalType": "address",
          "name": "",
          "type": "address"
        }
      ],
      "name": "userVotes",
      "outputs": [
        {
          "internalType": "uint256",
          "name": "",
          "type": "uint256"
        }
      ],
      "stateMutability": "view",
      "type": "function"
    },
    {
      "inputs": [
        {
          "internalType": "uint256",
          "name": "candidateId",
          "type": "uint256"
        }
      ],
      "name": "vote",
      "outputs": [],
      "stateMutability": "nonpayable",
      "type": "function"
    }
  ],
  "transactionHash": "0x43f17ec6fe8584f77ffad99560302dcd9c1089dc3a8f87a0c8f391def2da97e9",
  "args": [
    "39209009922664085120467656896779257046550020200442394068324625209245416488231",
    "0x5FbDB2315678afecb367f032d93F642f64180aa3",
    "0x787d74caea10b2b357790d5b5247c2f63d1d91572a9846f780606e4d953677ae"
  ],
  "numDeployments": 1,
  "solcInputHash": "1586032d04dae62788bf13f3cda37a51",
  "bytecode": "0x60c060405260405180606001604052806040518060400160405280601181526020017f477265676f72792074686520476e6f6d6500000000000000000000000000000081525081526020016040518060400160405280601081526020017f426f6e676f20746865204d6f6e6b65790000000000000000000000000000000081525081526020016040518060400160405280601481526020017f566c6164696d6972207468652056616d7069726500000000000000000000000081525081525060079060036100ce9291906103e3565b503480156100db57600080fd5b506040516121bd3803806121bd83398181016040528101906100fd919061058c565b81338060008073ffffffffffffffffffffffffffffffffffffffff168273ffffffffffffffffffffffffffffffffffffffff1603610170576040517f08c379a00000000000000000000000000000000000000000000000000000000081526004016101679061063c565b60405180910390fd5b816000806101000a81548173ffffffffffffffffffffffffffffffffffffffff021916908373ffffffffffffffffffffffffffffffffffffffff160217905550600073ffffffffffffffffffffffffffffffffffffffff168173ffffffffffffffffffffffffffffffffffffffff16146101f4576101f3816102b760201b60201c565b5b505050600073ffffffffffffffffffffffffffffffffffffffff168173ffffffffffffffffffffffffffffffffffffffff160361025d576040517fd92e233d00000000000000000000000000000000000000000000000000000000815260040160405180910390fd5b80600260006101000a81548173ffffffffffffffffffffffffffffffffffffffff021916908373ffffffffffffffffffffffffffffffffffffffff160217905550508060a0818152505082608081815250505050506109e0565b3373ffffffffffffffffffffffffffffffffffffffff168173ffffffffffffffffffffffffffffffffffffffff1603610325576040517f08c379a000000000000000000000000000000000000000000000000000000000815260040161031c906106a8565b60405180910390fd5b80600160006101000a81548173ffffffffffffffffffffffffffffffffffffffff021916908373ffffffffffffffffffffffffffffffffffffffff1602179055508073ffffffffffffffffffffffffffffffffffffffff1660008054906101000a900473ffffffffffffffffffffffffffffffffffffffff1673ffffffffffffffffffffffffffffffffffffffff167fed8889f560326eb138920d842192f0eb3dd22b4f139c87a2c57538e05bae127860405160405180910390a350565b82805482825590600052602060002090810192821561042b579160200282015b8281111561042a57825182908161041a919061090e565b5091602001919060010190610403565b5b509050610438919061043c565b5090565b5b8082111561045c57600081816104539190610460565b5060010161043d565b5090565b50805461046c90610731565b6000825580601f1061047e575061049d565b601f01602090049060005260206000209081019061049c91906104a0565b5b50565b5b808211156104b95760008160009055506001016104a1565b5090565b600080fd5b6000819050919050565b6104d5816104c2565b81146104e057600080fd5b50565b6000815190506104f2816104cc565b92915050565b600073ffffffffffffffffffffffffffffffffffffffff82169050919050565b6000610523826104f8565b9050919050565b61053381610518565b811461053e57600080fd5b50565b6000815190506105508161052a565b92915050565b6000819050919050565b61056981610556565b811461057457600080fd5b50565b60008151905061058681610560565b92915050565b6000806000606084860312156105a5576105a46104bd565b5b60006105b3868287016104e3565b93505060206105c486828701610541565b92505060406105d586828701610577565b9150509250925092565b600082825260208201905092915050565b7f43616e6e6f7420736574206f776e657220746f207a65726f0000000000000000600082015250565b60006106266018836105df565b9150610631826105f0565b602082019050919050565b6000602082019050818103600083015261065581610619565b9050919050565b7f43616e6e6f74207472616e7366657220746f2073656c66000000000000000000600082015250565b60006106926017836105df565b915061069d8261065c565b602082019050919050565b600060208201905081810360008301526106c181610685565b9050919050565b600081519050919050565b7f4e487b7100000000000000000000000000000000000000000000000000000000600052604160045260246000fd5b7f4e487b7100000000000000000000000000000000000000000000000000000000600052602260045260246000fd5b6000600282049050600182168061074957607f821691505b60208210810361075c5761075b610702565b5b50919050565b60008190508160005260206000209050919050565b60006020601f8301049050919050565b600082821b905092915050565b6000600883026107c47fffffffffffffffffffffffffffffffffffffffffffffffffffffffffffffffff82610787565b6107ce8683610787565b95508019841693508086168417925050509392505050565b6000819050919050565b600061080b610806610801846104c2565b6107e6565b6104c2565b9050919050565b6000819050919050565b610825836107f0565b61083961083182610812565b848454610794565b825550505050565b600090565b61084e610841565b61085981848461081c565b505050565b5b8181101561087d57610872600082610846565b60018101905061085f565b5050565b601f8211156108c25761089381610762565b61089c84610777565b810160208510156108ab578190505b6108bf6108b785610777565b83018261085e565b50505b505050565b600082821c905092915050565b60006108e5600019846008026108c7565b1980831691505092915050565b60006108fe83836108d4565b9150826002028217905092915050565b610917826106c8565b67ffffffffffffffff8111156109305761092f6106d3565b5b61093a8254610731565b610945828285610881565b600060209050601f8311600181146109785760008415610966578287015190505b61097085826108f2565b8655506109d8565b601f19841661098686610762565b60005b828110156109ae57848901518255600182019150602085019450602081019050610989565b868310156109cb57848901516109c7601f8916826108d4565b8355505b6001600288020188555050505b505050505050565b60805160a0516117b8610a056000396000610a3101526000610a5701526117b86000f3fe608060405234801561001057600080fd5b50600436106101005760003560e01c80638da5cb5b11610097578063e0c8628911610066578063e0c8628914610263578063e89e106a1461026d578063f2fde38b1461028b578063f6eaffc8146102a757610100565b80638da5cb5b146101ed5780638ea981171461020b5780639755a710146102275780639eccacf61461024557610100565b80635158e57c116100d35780635158e57c146101775780636219015014610195578063726a2e70146101c557806379ba5097146101e357610100565b80630121b93f146101055780631fe543e3146101215780633477ee2e1461013d5780634cb66def1461016d575b600080fd5b61011f600480360381019061011a9190610efa565b6102d7565b005b61013b60048036038101906101369190610f8c565b61031e565b005b61015760048036038101906101529190610efa565b6103e4565b604051610164919061107c565b60405180910390f35b610175610490565b005b61017f6105da565b60405161018c91906110ad565b60405180910390f35b6101af60048036038101906101aa9190611126565b6105e0565b6040516101bc91906110ad565b60405180910390f35b6101cd6105f8565b6040516101da91906110ad565b60405180910390f35b6101eb6105fe565b005b6101f5610793565b6040516102029190611162565b60405180910390f35b61022560048036038101906102209190611126565b6107bc565b005b61022f61099d565b60405161023c9190611198565b60405180910390f35b61024d6109b0565b60405161025a9190611212565b60405180910390f35b61026b6109d6565b005b610275610b26565b60405161028291906110ad565b60405180910390f35b6102a560048036038101906102a09190611126565b610b2c565b005b6102c160048036038101906102bc9190610efa565b610b40565b6040516102ce91906110ad565b60405180910390f35b80600860003373ffffffffffffffffffffffffffffffffffffffff1673ffffffffffffffffffffffffffffffffffffffff1681526020019081526020016000208190555050565b600260009054906101000a900473ffffffffffffffffffffffffffffffffffffffff1673ffffffffffffffffffffffffffffffffffffffff163373ffffffffffffffffffffffffffffffffffffffff16146103d45733600260009054906101000a900473ffffffffffffffffffffffffffffffffffffffff166040517f1cf993f40000000000000000000000000000000000000000000000000000000081526004016103cb92919061122d565b60405180910390fd5b6103df838383610b64565b505050565b600781815481106103f457600080fd5b90600052602060002001600091509050805461040f90611285565b80601f016020809104026020016040519081016040528092919081815260200182805461043b90611285565b80156104885780601f1061045d57610100808354040283529160200191610488565b820191906000526020600020905b81548152906001019060200180831161046b57829003601f168201915b505050505081565b600654600860003373ffffffffffffffffffffffffffffffffffffffff1673ffffffffffffffffffffffffffffffffffffffff168152602001908152602001600020540361055a577fba972d86ca21af421babbe65125f5e093393a91f6f19c2381313616393207447600860003373ffffffffffffffffffffffffffffffffffffffff1673ffffffffffffffffffffffffffffffffffffffff16815260200190815260200160002054600654600160405161054d939291906112b6565b60405180910390a16105d8565b7fba972d86ca21af421babbe65125f5e093393a91f6f19c2381313616393207447600860003373ffffffffffffffffffffffffffffffffffffffff1673ffffffffffffffffffffffffffffffffffffffff1681526020019081526020016000205460065460006040516105cf939291906112b6565b60405180910390a15b565b60045481565b60086020528060005260406000206000915090505481565b60065481565b600160009054906101000a900473ffffffffffffffffffffffffffffffffffffffff1673ffffffffffffffffffffffffffffffffffffffff163373ffffffffffffffffffffffffffffffffffffffff161461068e576040517f08c379a000000000000000000000000000000000000000000000000000000000815260040161068590611339565b60405180910390fd5b60008060009054906101000a900473ffffffffffffffffffffffffffffffffffffffff169050336000806101000a81548173ffffffffffffffffffffffffffffffffffffffff021916908373ffffffffffffffffffffffffffffffffffffffff1602179055506000600160006101000a81548173ffffffffffffffffffffffffffffffffffffffff021916908373ffffffffffffffffffffffffffffffffffffffff1602179055503373ffffffffffffffffffffffffffffffffffffffff168173ffffffffffffffffffffffffffffffffffffffff167f8be0079c531659141344cd1fd0a4f28419497f9722a3daafe3b4186f6b6457e060405160405180910390a350565b60008060009054906101000a900473ffffffffffffffffffffffffffffffffffffffff16905090565b6107c4610793565b73ffffffffffffffffffffffffffffffffffffffff163373ffffffffffffffffffffffffffffffffffffffff161415801561084d5750600260009054906101000a900473ffffffffffffffffffffffffffffffffffffffff1673ffffffffffffffffffffffffffffffffffffffff163373ffffffffffffffffffffffffffffffffffffffff1614155b156108bc573361085b610793565b600260009054906101000a900473ffffffffffffffffffffffffffffffffffffffff166040517f061db9c10000000000000000000000000000000000000000000000000000000081526004016108b393929190611359565b60405180910390fd5b600073ffffffffffffffffffffffffffffffffffffffff168173ffffffffffffffffffffffffffffffffffffffff1603610922576040517fd92e233d00000000000000000000000000000000000000000000000000000000815260040160405180910390fd5b80600260006101000a81548173ffffffffffffffffffffffffffffffffffffffff021916908373ffffffffffffffffffffffffffffffffffffffff1602179055507fd1a6a14209a385a964d036e404cb5cfb71f4000cdb03c9366292430787261be6816040516109929190611162565b60405180910390a150565b600260149054906101000a900460ff1681565b600260009054906101000a900473ffffffffffffffffffffffffffffffffffffffff1681565b6109de610bfc565b6000600681905550600260009054906101000a900473ffffffffffffffffffffffffffffffffffffffff1673ffffffffffffffffffffffffffffffffffffffff16639b1c385e6040518060c001604052807f000000000000000000000000000000000000000000000000000000000000000081526020017f00000000000000000000000000000000000000000000000000000000000000008152602001600361ffff168152602001620186a063ffffffff168152602001600163ffffffff168152602001610abc604051806020016040528060001515815250610c8c565b8152506040518263ffffffff1660e01b8152600401610adb91906114d2565b6020604051808303816000875af1158015610afa573d6000803e3d6000fd5b505050506040513d601f19601f82011682018060405250810190610b1e9190611509565b600581905550565b60055481565b610b34610bfc565b610b3d81610d24565b50565b60038181548110610b5057600080fd5b906000526020600020016000915090505481565b818160039190610b75929190610e50565b50600382826000818110610b8c57610b8b611536565b5b90506020020135610b9d9190611594565b6006819055506001600260146101000a81548160ff0219169083151502179055507fefb16d61046900da527008568620fb9f8420e2f5ed4de3bfbded5035c9362b0e8282604051610bef929190611640565b60405180910390a1505050565b60008054906101000a900473ffffffffffffffffffffffffffffffffffffffff1673ffffffffffffffffffffffffffffffffffffffff163373ffffffffffffffffffffffffffffffffffffffff1614610c8a576040517f08c379a0000000000000000000000000000000000000000000000000000000008152600401610c81906116b0565b60405180910390fd5b565b60607f92fd13387c7fe7befbc38d303d6468778fb9731bc4583f17d92989c6fcfdeaaa82604051602401610cc091906116fb565b604051602081830303815290604052907bffffffffffffffffffffffffffffffffffffffffffffffffffffffff19166020820180517bffffffffffffffffffffffffffffffffffffffffffffffffffffffff83818316178352505050509050919050565b3373ffffffffffffffffffffffffffffffffffffffff168173ffffffffffffffffffffffffffffffffffffffff1603610d92576040517f08c379a0000000000000000000000000000000000000000000000000000000008152600401610d8990611762565b60405180910390fd5b80600160006101000a81548173ffffffffffffffffffffffffffffffffffffffff021916908373ffffffffffffffffffffffffffffffffffffffff1602179055508073ffffffffffffffffffffffffffffffffffffffff1660008054906101000a900473ffffffffffffffffffffffffffffffffffffffff1673ffffffffffffffffffffffffffffffffffffffff167fed8889f560326eb138920d842192f0eb3dd22b4f139c87a2c57538e05bae127860405160405180910390a350565b828054828255906000526020600020908101928215610e8c579160200282015b82811115610e8b578235825591602001919060010190610e70565b5b509050610e999190610e9d565b5090565b5b80821115610eb6576000816000905550600101610e9e565b5090565b600080fd5b600080fd5b6000819050919050565b610ed781610ec4565b8114610ee257600080fd5b50565b600081359050610ef481610ece565b92915050565b600060208284031215610f1057610f0f610eba565b5b6000610f1e84828501610ee5565b91505092915050565b600080fd5b600080fd5b600080fd5b60008083601f840112610f4c57610f4b610f27565b5b8235905067ffffffffffffffff811115610f6957610f68610f2c565b5b602083019150836020820283011115610f8557610f84610f31565b5b9250929050565b600080600060408486031215610fa557610fa4610eba565b5b6000610fb386828701610ee5565b935050602084013567ffffffffffffffff811115610fd457610fd3610ebf565b5b610fe086828701610f36565b92509250509250925092565b600081519050919050565b600082825260208201905092915050565b60005b8381101561102657808201518184015260208101905061100b565b60008484015250505050565b6000601f19601f8301169050919050565b600061104e82610fec565b6110588185610ff7565b9350611068818560208601611008565b61107181611032565b840191505092915050565b600060208201905081810360008301526110968184611043565b905092915050565b6110a781610ec4565b82525050565b60006020820190506110c2600083018461109e565b92915050565b600073ffffffffffffffffffffffffffffffffffffffff82169050919050565b60006110f3826110c8565b9050919050565b611103816110e8565b811461110e57600080fd5b50565b600081359050611120816110fa565b92915050565b60006020828403121561113c5761113b610eba565b5b600061114a84828501611111565b91505092915050565b61115c816110e8565b82525050565b60006020820190506111776000830184611153565b92915050565b60008115159050919050565b6111928161117d565b82525050565b60006020820190506111ad6000830184611189565b92915050565b6000819050919050565b60006111d86111d36111ce846110c8565b6111b3565b6110c8565b9050919050565b60006111ea826111bd565b9050919050565b60006111fc826111df565b9050919050565b61120c816111f1565b82525050565b60006020820190506112276000830184611203565b92915050565b60006040820190506112426000830185611153565b61124f6020830184611153565b9392505050565b7f4e487b7100000000000000000000000000000000000000000000000000000000600052602260045260246000fd5b6000600282049050600182168061129d57607f821691505b6020821081036112b0576112af611256565b5b50919050565b60006060820190506112cb600083018661109e565b6112d8602083018561109e565b6112e56040830184611189565b949350505050565b7f4d7573742062652070726f706f736564206f776e657200000000000000000000600082015250565b6000611323601683610ff7565b915061132e826112ed565b602082019050919050565b6000602082019050818103600083015261135281611316565b9050919050565b600060608201905061136e6000830186611153565b61137b6020830185611153565b6113886040830184611153565b949350505050565b6000819050919050565b6113a381611390565b82525050565b6113b281610ec4565b82525050565b600061ffff82169050919050565b6113cf816113b8565b82525050565b600063ffffffff82169050919050565b6113ee816113d5565b82525050565b600081519050919050565b600082825260208201905092915050565b600061141b826113f4565b61142581856113ff565b9350611435818560208601611008565b61143e81611032565b840191505092915050565b600060c083016000830151611461600086018261139a565b50602083015161147460208601826113a9565b50604083015161148760408601826113c6565b50606083015161149a60608601826113e5565b5060808301516114ad60808601826113e5565b5060a083015184820360a08601526114c58282611410565b9150508091505092915050565b600060208201905081810360008301526114ec8184611449565b905092915050565b60008151905061150381610ece565b92915050565b60006020828403121561151f5761151e610eba565b5b600061152d848285016114f4565b91505092915050565b7f4e487b7100000000000000000000000000000000000000000000000000000000600052603260045260246000fd5b7f4e487b7100000000000000000000000000000000000000000000000000000000600052601260045260246000fd5b600061159f82610ec4565b91506115aa83610ec4565b9250826115ba576115b9611565565b5b828206905092915050565b600082825260208201905092915050565b600080fd5b82818337505050565b60006115f083856115c5565b93507f07ffffffffffffffffffffffffffffffffffffffffffffffffffffffffffffff831115611623576116226115d6565b5b6020830292506116348385846115db565b82840190509392505050565b6000602082019050818103600083015261165b8184866115e4565b90509392505050565b7f4f6e6c792063616c6c61626c65206279206f776e657200000000000000000000600082015250565b600061169a601683610ff7565b91506116a582611664565b602082019050919050565b600060208201905081810360008301526116c98161168d565b9050919050565b6116d98161117d565b82525050565b6020820160008201516116f560008501826116d0565b50505050565b600060208201905061171060008301846116df565b92915050565b7f43616e6e6f74207472616e7366657220746f2073656c66000000000000000000600082015250565b600061174c601783610ff7565b915061175782611716565b602082019050919050565b6000602082019050818103600083015261177b8161173f565b905091905056fea26469706673582212208fe97ee1879c818fbf6652958661d119045a600fd13716e05581e850c371aa0a64736f6c634300081c0033",
  "devdoc": {
    "kind": "dev",
    "methods": {},
    "title": "The mock vote contract",
    "version": 1
  },
  "userdoc": {
    "kind": "user",
    "methods": {
      "acceptOwnership()": {
        "notice": "Allows an ownership transfer to be completed by the recipient."
      },
      "owner()": {
        "notice": "Get the current owner"
      },
      "setCoordinator(address)": {
        "notice": "Sets the VRF Coordinator addressThis method should only be callable by the coordinator or contract owner"
      },
      "transferOwnership(address)": {
        "notice": "Allows an owner to begin transferring ownership to a new address."
      }
    },
    "notice": "This vote contract gets mock random values from the VRFCoordinatorV2_5Mock",
    "version": 1
  },
  "storageLayout": {
    "storage": [
      {
        "astId": 29,
        "contract": "contracts/mocks/MockVote.sol:MockVote",
        "label": "s_owner",
        "offset": 0,
        "slot": "0",
        "type": "t_address"
      },
      {
        "astId": 31,
        "contract": "contracts/mocks/MockVote.sol:MockVote",
        "label": "s_pendingOwner",
        "offset": 0,
        "slot": "1",
        "type": "t_address"
      },
      {
        "astId": 231,
        "contract": "contracts/mocks/MockVote.sol:MockVote",
        "label": "s_vrfCoordinator",
        "offset": 0,
        "slot": "2",
        "type": "t_contract(IVRFCoordinatorV2Plus)380"
      },
      {
        "astId": 544,
        "contract": "contracts/mocks/MockVote.sol:MockVote",
        "label": "hasWinner",
        "offset": 20,
        "slot": "2",
        "type": "t_bool"
      },
      {
        "astId": 560,
        "contract": "contracts/mocks/MockVote.sol:MockVote",
        "label": "s_randomWords",
        "offset": 0,
        "slot": "3",
        "type": "t_array(t_uint256)dyn_storage"
      },
      {
        "astId": 562,
        "contract": "contracts/mocks/MockVote.sol:MockVote",
        "label": "s_randomRange",
        "offset": 0,
        "slot": "4",
        "type": "t_uint256"
      },
      {
        "astId": 564,
        "contract": "contracts/mocks/MockVote.sol:MockVote",
        "label": "s_requestId",
        "offset": 0,
        "slot": "5",
        "type": "t_uint256"
      },
      {
        "astId": 566,
        "contract": "contracts/mocks/MockVote.sol:MockVote",
        "label": "randomWinnerId",
        "offset": 0,
        "slot": "6",
        "type": "t_uint256"
      },
      {
        "astId": 573,
        "contract": "contracts/mocks/MockVote.sol:MockVote",
        "label": "candidates",
        "offset": 0,
        "slot": "7",
        "type": "t_array(t_string_storage)dyn_storage"
      },
      {
        "astId": 577,
        "contract": "contracts/mocks/MockVote.sol:MockVote",
        "label": "userVotes",
        "offset": 0,
        "slot": "8",
        "type": "t_mapping(t_address,t_uint256)"
      }
    ],
    "types": {
      "t_address": {
        "encoding": "inplace",
        "label": "address",
        "numberOfBytes": "20"
      },
      "t_array(t_string_storage)dyn_storage": {
        "base": "t_string_storage",
        "encoding": "dynamic_array",
        "label": "string[]",
        "numberOfBytes": "32"
      },
      "t_array(t_uint256)dyn_storage": {
        "base": "t_uint256",
        "encoding": "dynamic_array",
        "label": "uint256[]",
        "numberOfBytes": "32"
      },
      "t_bool": {
        "encoding": "inplace",
        "label": "bool",
        "numberOfBytes": "1"
      },
      "t_contract(IVRFCoordinatorV2Plus)380": {
        "encoding": "inplace",
        "label": "contract IVRFCoordinatorV2Plus",
        "numberOfBytes": "20"
      },
      "t_mapping(t_address,t_uint256)": {
        "encoding": "mapping",
        "key": "t_address",
        "label": "mapping(address => uint256)",
        "numberOfBytes": "32",
        "value": "t_uint256"
      },
      "t_string_storage": {
        "encoding": "bytes",
        "label": "string",
        "numberOfBytes": "32"
      },
      "t_uint256": {
        "encoding": "inplace",
        "label": "uint256",
        "numberOfBytes": "32"
      }
    }
  }
}